{
  "abi": [
    {
      "inputs": [
        {
          "internalType": "uint16",
          "name": "rp",
          "type": "uint16"
        }
      ],
      "stateMutability": "nonpayable",
      "type": "constructor"
    },
    {
      "inputs": [],
      "name": "availableToLoan",
      "outputs": [
        {
          "internalType": "uint256",
          "name": "",
          "type": "uint256"
        }
      ],
      "stateMutability": "view",
      "type": "function"
    },
    {
      "inputs": [],
      "name": "bankBalance",
      "outputs": [
        {
          "internalType": "uint256",
          "name": "",
          "type": "uint256"
        }
      ],
      "stateMutability": "view",
      "type": "function"
    },
    {
      "inputs": [],
      "name": "depositToSavings",
      "outputs": [],
      "stateMutability": "payable",
      "type": "function"
    },
    {
      "inputs": [
        {
          "internalType": "address",
          "name": "",
          "type": "address"
        }
      ],
      "name": "loans",
      "outputs": [
        {
          "internalType": "uint256",
          "name": "",
          "type": "uint256"
        }
      ],
      "stateMutability": "view",
      "type": "function"
    },
    {
      "inputs": [],
      "name": "outstandingLoans",
      "outputs": [
        {
          "internalType": "uint256",
          "name": "",
          "type": "uint256"
        }
      ],
      "stateMutability": "view",
      "type": "function"
    },
    {
      "inputs": [],
      "name": "repayLoan",
      "outputs": [],
      "stateMutability": "payable",
      "type": "function"
    },
    {
      "inputs": [],
      "name": "reserve",
      "outputs": [
        {
          "internalType": "uint256",
          "name": "",
          "type": "uint256"
        }
      ],
      "stateMutability": "view",
      "type": "function"
    },
    {
      "inputs": [],
      "name": "reservePercentage",
      "outputs": [
        {
          "internalType": "uint16",
          "name": "",
          "type": "uint16"
        }
      ],
      "stateMutability": "view",
      "type": "function"
    },
    {
      "inputs": [
        {
          "internalType": "address",
          "name": "",
          "type": "address"
        }
      ],
      "name": "savings",
      "outputs": [
        {
          "internalType": "uint256",
          "name": "",
          "type": "uint256"
        }
      ],
      "stateMutability": "view",
      "type": "function"
    },
    {
      "inputs": [
        {
          "internalType": "uint256",
          "name": "amountRequested",
          "type": "uint256"
        }
      ],
      "name": "takeLoan",
      "outputs": [],
      "stateMutability": "nonpayable",
      "type": "function"
    },
    {
      "inputs": [
        {
          "internalType": "uint256",
          "name": "amount",
          "type": "uint256"
        }
      ],
      "name": "withdrawFromSavings",
      "outputs": [],
      "stateMutability": "nonpayable",
      "type": "function"
    }
  ],
  "bytecode": {
    "object": "0x608060405234801561001057600080fd5b5060405161071b38038061071b83398101604081905261002f9161004a565b6003805461ffff191661ffff92909216919091179055610075565b60006020828403121561005c57600080fd5b815161ffff8116811461006e57600080fd5b9392505050565b610697806100846000396000f3fe60806040526004361061009c5760003560e01c806373b4086b1161006457806373b4086b146101415780638180b0731461016e5780638c803fc214610176578063cd3293de14610196578063f700c829146101ab578063f966ade7146101d957600080fd5b806307f02431146100a15780631f7cdd5f146100c957806328657aa5146100f657806342bcbb2a146101095780634b56504f1461011f575b600080fd5b3480156100ad57600080fd5b506100b66101e1565b6040519081526020015b60405180910390f35b3480156100d557600080fd5b506100b66100e436600461059d565b60026020526000908152604090205481565b34801561010257600080fd5b50476100b6565b34801561011557600080fd5b506100b660005481565b34801561012b57600080fd5b5061013f61013a3660046105cd565b610206565b005b34801561014d57600080fd5b506100b661015c36600461059d565b60016020526000908152604090205481565b61013f6102df565b34801561018257600080fd5b5061013f6101913660046105cd565b610339565b3480156101a257600080fd5b506100b66103d6565b3480156101b757600080fd5b506003546101c69061ffff1681565b60405161ffff90911681526020016100c0565b61013f6103f7565b600080546101ed6103d6565b6101f791906105fc565b61020190476105fc565b905090565b336000908152600260205260409020548181101561026b5760405162461bcd60e51b815260206004820152601d60248201527f796f7520646f6e2774206861766520656e6f75676820736176696e677300000060448201526064015b60405180910390fd5b814710156102b45760405162461bcd60e51b81526020600482015260166024820152757468652062616e6b20697320696e736f6c76656e742160501b6044820152606401610262565b6102be82826105fc565b336000818152600260205260409020919091556102db9083610547565b5050565b600034116103255760405162461bcd60e51b81526020600482015260136024820152720796f752063616e2774206465706f736974203606c1b6044820152606401610262565b336000908152600260205260409020349055565b806103426101e1565b101561039f5760405162461bcd60e51b815260206004820152602660248201527f62616e6b20697320756e61626c6520746f206c6f616e2061742074686973207460448201526534b6b297171760d11b6064820152608401610262565b336000908152600160205260408120829055805482919081906103c3908490610615565b909155506103d390503382610547565b50565b6000612710476003546103ed919061ffff16610628565b610201919061063f565b6000341161043b5760405162461bcd60e51b81526020600482015260116024820152700796f752063616e2774207265706179203607c1b6044820152606401610262565b336000908152600160205260409020546104aa5760405162461bcd60e51b815260206004820152602a60248201527f796f7520646f6e2774206861766520616e206f75747374616e64696e67206c6f604482015269616e2062616c616e636560b01b6064820152608401610262565b336000908152600160205260409020543410156105095760405162461bcd60e51b815260206004820152601f60248201527f796f752063616e277420706179206d6f7265207468616e20796f75206f7765006044820152606401610262565b33600090815260016020526040812080543492906105289084906105fc565b925050819055503460008082825461054091906105fc565b9091555050565b600080600080600085875af19050806105985760405162461bcd60e51b815260206004820152601360248201527211551217d514905394d1915497d19052531151606a1b6044820152606401610262565b505050565b6000602082840312156105af57600080fd5b81356001600160a01b03811681146105c657600080fd5b9392505050565b6000602082840312156105df57600080fd5b5035919050565b634e487b7160e01b600052601160045260246000fd5b8181038181111561060f5761060f6105e6565b92915050565b8082018082111561060f5761060f6105e6565b808202811582820484141761060f5761060f6105e6565b60008261065c57634e487b7160e01b600052601260045260246000fd5b50049056fea2646970667358221220960fbd99ad53eb163a5a85e1f5767ea34d7a80254571594ab3860ec6939c205964736f6c63430008140033",
    "linkReferences": {}
  },
  "methodIdentifiers": {
    "availableToLoan()": "07f02431",
    "bankBalance()": "28657aa5",
    "depositToSavings()": "8180b073",
    "loans(address)": "73b4086b",
    "outstandingLoans()": "42bcbb2a",
    "repayLoan()": "f966ade7",
    "reserve()": "cd3293de",
    "reservePercentage()": "f700c829",
    "savings(address)": "1f7cdd5f",
    "takeLoan(uint256)": "8c803fc2",
    "withdrawFromSavings(uint256)": "4b56504f"
  },
  "id": 21
}